:020000040000FA
:1000000040040020D5000000F5000000F7000000CB
:1000100000000000000000000000000000000000E0
:1000200000000000000000000000000007010000C8
:100030000000000000000000090100000B010000AA
:100040000D0100000D0100000D0100000D01000078
:100050000D0100000D0100000D0100000D01000068
:10006000CD0C00000D0100000D0100000D0100008D
:100070000D0100000D0100000D0100000D01000048
:100080000D0100000D0100000D0100000D01000038
:100090000D0100000D0100000D0100000D01000028
:1000A0000D0100000D0100000D0100000D01000018
:1000B0000D0100000D0100000D0100000D01000008
:1000C0000348854600F072F80048004759110000C7
:1000D000400400201248134901601349016013498C
:1000E0000160134A134911600021016012488047E2
:1000F00012480047FEE77046EFF30881EFF30982EC
:100100000F4B98470047FEE7FEE7FEE7FEE70000DB
:10011000ABBE0C4B7446984720477046F047000032
:100120000001005059000000160000008800000087
:1001300024000050A55A0000210C0000C10000005E
:10014000750A0000990A000030B50B4601460020F0
:100150002022012409E00D46D5409D4205D31D46CD
:100160009540491B2546954040191546521E002DC5
:10017000F1DC30BD03460B439B0703D009E008C9FF
:10018000121F08C0042AFAD203E00B780370401C47
:10019000491C521EF9D270470321001D401E0378EE
:1001A00012021A43491EF9D510467047064C012524
:1001B000064E05E0E36807CC2B430C3C984710340F
:1001C000B442F7D3FFF780FFD0140000F014000012
:1001D000F0B55749D1B000200870FF2248600132C5
:1001E00001A900F011FB002802D0022051B0F0BD9F
:1001F0000020702201A9C04300F08EFDC44301A875
:1002000001F04BF84B49884266D101AE02A801F0DB
:100210003FF8012860D1B01D01F03AF8C11FF9394B
:100220005AD103A801F034F8802855D103A8023030
:1002300001F02EF880284FD104A801F029F81E28DB
:100240004AD104A8023001F023F8012844D105A8BE
:1002500001F023F8384988423ED10CA801F01DF87E
:10026000012839D10DA801F018F8012834D11DA8B2
:1002700001F013F8A0422FD106A801F00EF80646AF
:1002800007A801F00AF8044608A801F006F8009053
:1002900009A801F002F807460AA800F0FEFF05468B
:1002A0001BA800F0FAFFF11FF93915D123498C4240
:1002B00012D105220099920291420DD120498F421C
:1002C0000AD120498D4207D10121C9058D4203D8A9
:1002D0000099C919A94201D9032087E70027FF43E4
:1002E000009015E0402C01D9402500E025462A4623
:1002F00041A9304600F088FA002801D0022010E021
:100300002A4641A9384600F007FD76190746641BC6
:10031000002CE7D10098F943814201D0042000E08D
:1003200000200028D9D102480121017000205DE79A
:100330003000002059584D56BA040000EC1200005D
:10034000B4DC220000F1220010B50B4C207800280C
:1003500007D0606800F0ACFF0021002803D02170B6
:1003600010BD012010BD6068044A401C60609042CE
:1003700000D36160002010BD30000020BA040000EE
:100380001FB509491EC903946C460EC4810F8A002B
:1003900069468A58054951184A68C306DB0E012090
:1003A000984002434A601FBD9014000000020050B4
:1003B000F0B507000C46564885B054490162554EC9
:1003C000016813D0042211430160102000F08CF961
:1003D0000120C00402905048042503904F48504922
:1003E000201888420DD8002004901CE001221143FF
:1003F0000160104600F078F9002002250396029073
:10040000ECE7484848492018884203D80120640096
:10041000049008E04548454920184942884249D897
:100420000320A40004900026F643002000900190D1
:1004300021E029460398FFF787FE3D493D4A4118D0
:10044000914217D20222354B014651435B1CCF1813
:100450005B429F420AD8A14201D90B1B00E0631AFC
:10046000B34203D21E000095019203D03249521CC0
:100470008A42E8D96D1C212DDBD9049802998003AA
:1004800008430099012249029202891A08430199FE
:10049000891E08431E490862042000F025F90499CA
:1004A0000098491C41430398FFF74EFE01994843C9
:1004B00005B0F0BD002F0FD020491548016204207F
:1004C00000F012F91EA0006800901148016A0013A4
:1004D000014203D00020EBE71A49EEE7080300D5FC
:1004E0000D4E880301D53046E2E70804800F6A46C6
:1004F000105CCA058904C90E891CD20D4143B0089D
:10050000921C5043FFF720FE8000D1E7000001005D
:1005100000020050001BB70000805101FF1E0AFAC4
:10052000FFE0F5057F0F05FD7FF0FA02C08782FE30
:10053000FF95E7FFBF77CC00010200006FD60800EF
:10054000010202042EC2000002490A6802430A6046
:10055000704700000002005010B500F019FB014880
:10056000006810BD0000002008B511A000680090D0
:100570001048016A0013014201D0002008BD0803A1
:1005800001D50D4800E00D488A03F7D40A04920F04
:100590006B469B5CCA058904D20DC90E891C800874
:1005A000921C59435043FFF7CFFD800008BD000067
:1005B000010202040002005000805101001BB7003C
:1005C000F8B51C4D0446EE68102006401A488442D7
:1005D00002D84010844200D20446286804273843D9
:1005E0002860102000F080F828690721084328615E
:1005F000A86900090001A861E868C00705D061008A
:100600000020FFF7D5FE044608E001206100C00489
:10061000FFF7CEFEEE6804461020064001210220BE
:1006200000F00CF8002E02D12868B843286060085A
:10063000F8BD00000002005080F0FA02F3B5114C42
:1006400081B0E5680F46102005402068042630433D
:100650002060102000F048F820690721084320613D
:10066000A069000900013843A0612069884301990D
:100670000843206100F08CFA002D02D12068B043BD
:100680002060FEBD000200507FB5154B78CB03966D
:100690006E4638C6840A23061B0E0CD003039B0F3C
:1006A000104D9B005B19E5B28405E40EA5401C6863
:1006B000AC4314431C60420E520710D08200920FCC
:1006C00092006B469A58074B083BD21803015B0F08
:1006D000C001C00E834010689843084310607FBD7E
:1006E000801400001802005010B504460848094A5A
:1006F0000068410805E00B46491E002B01DC002084
:1007000010BDD36820469843F5D1012010BD0000EC
:100710000000002000020050F8B504460120C0058A
:10072000844203D2164E3078002801D00120F8BD53
:10073000144DA8680C21884301273843A860032082
:1007400000F00EFB002810D12002000E00F008FB84
:1007500000280AD12004000E00F002FB002804D17A
:10076000E0B200F0FDFA002806D0A9680822914303
:1007700005221143A960F8BD37700020F8BD0000C4
:100780003900002000000340054988680822904392
:10079000052210438860034900200870704700005C
:1007A00000000340390000201CB51248124C009094
:1007B000082304220021204600F070F90F200521B3
:1007C000090788630D4800210161A268082082435F
:1007D00005200243A2600A48017001A800F04EF80B
:1007E000002804D107490198884201D003201CBD8C
:1007F00000201CBD8096980000000340400000507F
:10080000390000201740C80070B515460E0006D00C
:100810000121C905884202D2091AA94201D2012048
:1008200070BD002D05D0FFF777FF0028F8D1002418
:1008300007E0002070BD301900F008F80028F9D159
:10084000641CAC42F7D3FFF79FFFF2E710B5002816
:100850000DD00949097800290BD00146FF2000F08E
:1008600085FA030001D0FFF78FFF184610BD012065
:1008700010BD042010BD0000390000203EB504006A
:100880000CD0194DA8680C21884301210843A860A9
:100890009F2000F065FA002802D011E001203EBD43
:1008A0006946FF2000F062FA002809D101A9FF2063
:1008B00000F05CFA002803D102A9FF2000F056FAEC
:1008C000A9680822914305221143A9600028E6D1B6
:1008D0006946087809790004090208436946097ADB
:1008E0000843206000203EBD00000340F0B5002317
:1008F00001273C469C400C4208D005685C0003265A
:10090000A640B5431646A640354305605B1C102B38
:10091000EFD3F0BDF8B5154C154D2678002E03D059
:100920000126EE6300262670002A16D0002B14D074
:10093000802812D2802910D28026371A97420CD3F1
:10094000761A9E4209D3CB1882185B1E521E9BB2A8
:1009500092B200F08BFB002801D00120F8BD0020EE
:10096000E8630120E86120700020F8BD3800002015
:100970008042005008B58023002100901A460846A6
:1009800000F010F808BD000004480178002904D0E8
:10099000034A0121D1630021017070473800002013
:1009A0008042005070B5049E1D46140012D0002DE8
:1009B00010D080280ED280290CD28022131AA34294
:1009C00008D3521AAA4205D32B462246FFF7A2FFAC
:1009D000002801D0012070BD21466943304600F057
:1009E00093FBFFF7D1FF002070BD000010B500F0B1
:1009F00007FB0A4C0020E061642000F0E5FA0120CA
:100A0000E061322000F0E0FA00F0D0F90020FFF7BA
:100A1000B1FF012000F004F8002010BD004200509A
:100A20000249002800D001208861704780420050B0
:100A300010B5044606480078002807D0200A00F0C8
:100A40004BFBE0B200F048FB002010BD012010BDC0
:100A50003800002010B5064A1278002A05D0002977
:100A600003D000F051FB002010BD012010BD00009C
:100A700038000020054900208861BFF34F8F0549E9
:100A80000348C860BFF34F8FFEE70000804200506C
:100A90000400FA0500ED00E000207047F8B5069E5E
:100AA0000D460446202B00D10023D80028431043D4
:100AB0002060E06B0121C9070843E063FFF74CFDAC
:100AC000074600223148002D06D01021A16043695D
:100AD0000B434361626013E00021A1602B48406931
:100AE000C00601D53D4602E0FFF73EFD0546BE4289
:100AF00008D32648416910221143416100206060FB
:100B00003846F8BDAE4203D3002060602846F8BDE9
:100B1000002E28D00A202F46474331463846FFF79B
:100B200013FB0A21401DFFF70FFB401EFF2824D9AD
:100B3000E06B40004008E06371003846FFF704FBBB
:100B40000A21401DFFF700FB401EFF2800D9FF20AF
:100B50006168090A09020143616041002846891C55
:100B6000FFF7F2FAF8BDE06B40004008E063606810
:100B7000FF2108436060680AF8BD6168090A09023C
:100B800001436160411C2846EAE700000002005072
:100B900038B51DA000681D4C0090216A2013014249
:100BA00001D0002016E0080301D5194800E01948DB
:100BB0008A030FD40A04920F6B469B5CCA05890412
:100BC000D20DC90E891C8008921C59435043FFF76F
:100BD000BBFA8000104DA86021694907490F02291E
:100BE00003D0880029460C310858A1690907090F6C
:100BF000491CFFF7A9FA094928604A108018FFF735
:100C0000A3FA686038BD000001020204000200502F
:100C100000805101001BB7000000002040420F007F
:100C20007047000010B588B004462022124968467B
:100C3000FFF7A0FA114912488C4202D14069000A1C
:100C40000DE00E4920318C4202D14069000B06E0D4
:100C50000C4940698C4201D1000C00E0000D4007B6
:100C6000400F022804D080006946085808B010BD23
:100C700005480068FAE70000B014000000000140D9
:100C8000000200500000114000000020F7B5174698
:100C90000646FFF7C7FF054600244008B84201D2C8
:100CA000022008E039462846FFF74EFA040E02D02B
:100CB000611CFFF749FA0199214331607060641C9F
:100CC000604301462846FFF73FFAFEBD08488168A9
:100CD000C907C90F08D00121816006480278042A9B
:100CE00003D20178491C01707047417070470000C1
:100CF000000001402C00002002E008C8121F08C1BB
:100D0000002AFAD170477047002001E001C1121F8C
:100D1000002AFBD17047000070B50024094D0DE09A
:100D20000B5D58400023C60702D04008684000E031
:100D300040085B1CDBB2082BF5D3641C9442EFD354
:100D400070BD00002083B8ED04490A688B039A4304
:100D50000A60FFF70FFE30BFFDE700000000014012
:100D600008B5694600F002F808BD000010B500297A
:100D700007D00D4B0B4A18621868012420431860F5
:100D800002E0012010BD521E1868C00702D0002AE0
:100D9000F9D105E0002A03D018690870002010BDC1
:100DA000022010BDA08601000000034010B51120F4
:100DB00000F0BAF9782000F007F9B12000F0B4F99A
:100DC000012000F0BDF92C2000F0BAF92D2000F030
:100DD000B7F9B22000F0A8F9012000F0B1F92C20F9
:100DE00000F0AEF92D2000F0ABF9B32000F09CF933
:100DF000012000F0A5F92C2000F0A2F92D2000F030
:100E00009FF9012000F09CF92C2000F099F92D2089
:100E100000F096F9B42000F087F9072000F090F96F
:100E2000C02000F081F9A22000F08AF9022000F031
:100E300087F9842000F084F9C12000F075F9C520FD
:100E400000F07EF9C22000F06FF90A2000F078F976
:100E5000002000F075F9C32000F066F98A2000F048
:100E60006FF92A2000F06CF9C42000F05DF98A20A7
:100E700000F066F9EE2000F063F9C52000F054F9A7
:100E80000E2000F05DF9362000F04EF9682000F0E9
:100E900057F9E02000F048F90F2000F051F91A202E
:100EA00000F04EF90F2000F04BF9182000F048F93F
:100EB0002F2000F045F9282000F042F9202000F012
:100EC0003FF9222000F03CF91F2000F039F91B20E7
:100ED00000F036F9232000F033F9372000F030F924
:100EE000002000F02DF9072000F02AF9022000F080
:100EF00027F9102000F024F9E12000F015F90F2067
:100F000000F01EF91B2000F01BF90F2000F018F96B
:100F1000172000F015F9332000F012F92C2000F012
:100F20000FF9292000F00CF92E2000F009F93020EB
:100F300000F006F9302000F003F9392000F000F944
:100F40003F2000F0FDF8002000F0FAF8072000F044
:100F5000F7F8032000F0F4F8102000F0F1F82A2050
:100F600000F0E2F8002000F0EBF8002000F0E8F8D4
:100F7000002000F0E5F8832000F0E2F82B2000F0DC
:100F8000D3F8002000F0DCF8002000F0D9F80020B1
:100F900000F0D6F8832000F0D3F8F02000F0C4F879
:100FA000012000F0CDF8F62000F0BEF8002000F09F
:100FB000C7F83A2000F0B8F8052000F0C1F8292061
:100FC00000F0B2F810BD000070B50C4A00211568A1
:100FD0007D220526D2000C46074B554308E05D6193
:100FE0009C611E611A69D203FCD51C61491C89B23F
:100FF0008142F4D370BD000000E000E00400002056
:1010000070B50122D40321461648FFF76FFC154D39
:101010000122403591032846FFF768FC0122214652
:101020002846FFF763FC012240212846FFF75EFCBB
:10103000012280212846FFF759FC0A48012280211D
:101040004038FFF753FC08490120C863064A403A7C
:10105000D0638863C861044A803AD0610020886107
:1010600070BD00004040005080420050F8B5154669
:101070001C460E460746A84205D8A64203D8802D36
:1010800001D2802C01D30120F8BD2A2000F04CF8B9
:10109000002000F055F87F1CF8B200F051F8002055
:1010A00000F04EF86D1CE8B200F04AF82B2000F07A
:1010B0003BF8002000F044F8B61CF0B200F040F815
:1010C000002000F03DF8A41CE0B200F039F82C201C
:1010D00000F02AF80020F8BD70B50021094A094C3B
:1010E00001250B46403A060601D5A56300E0A3633F
:1010F000D363D5634006491C000EC9B20829F2D358
:1011000070BD00008042005070B50C46060AC5B2A2
:1011100006E03046FFF7E0FF2846FFF7DDFF641EDC
:10112000002CF6D170BD000010B5044C0021E16325
:10113000E161FFF7D1FF0120E06310BD8042005064
:1011400070B5044C0021E1630125E561FFF7C4FFA0
:10115000E56370BD80420050592116224148424C3F
:10116000882304E0216022602360401E02D02568AD
:10117000012DF7D10420FFF7E7F91020FFF7B4FAAB
:10118000002500282BD000210720FFF757FA012067
:10119000FFF7DAF90120FFF7A7FA3448FFF710FA52
:1011A000FFF7F6FC324E002210213046FFF76CFAB2
:1011B0003046FFF7E5F82F4E012100224902304664
:1011C000FFF762FA3046FFF7DBF82560FFF70EFC09
:1011D000FFF7EAFA002804D01F20C0022BE02560A8
:1011E000FEE7FEF7F5FF002801D0234823E00020AA
:1011F000FFF7C0FBFFF7A8F8204E002801D03046CB
:1012000019E01F4C01211E22C9062046FFF73EFDB2
:10121000206861030843206048151A490860206867
:10122000890508432060184C72B66078657062B614
:10123000002802D01548FFF787FD72B620780028F5
:1012400004D02078401E2070012100E0002162B609
:10125000002904D0FFF778F80028E5D0CFE730BFA9
:10126000E2E700000080510100010050006CDC0248
:101270000C0040520200805E1FF80000E0FF0000FA
:101280000000014000E100E02C000020FF0700000A
:101290004178027808021043704710B50446FEF703
:1012A0007BFF0002E178000A0906084310BD000038
:1012B000F0B5714904258FB0884220D28000FF30FC
:1012C000082207A90130FFF79FFA002801D0022564
:1012D00015E007A8FFF7E1FF099008A8FFF7DDFF79
:1012E0000522099992020B90914208D3884206D3B5
:1012F000624A904203D8401A102800D30025002DDE
:1013000074D1102203A90998FFF77EFA002828D18A
:101310006846007B0A906846477B847BC67B04A8AE
:10132000FFF7BBFF079005A8FFF7B7FF08900B99E1
:1013300009980A1A079910318A4277D12146089AEA
:101340007143914272D10A99091980296ED8B9194D
:1013500080296BD8002A6AD01030FFF7DDF9002809
:1013600002D002200FB0F0BD01200C90334622467F
:1013700039460A98FFF7CEFA002803D0FFF704FA9F
:101380000620EFE7012000240E90204656E002A838
:10139000FFF75CFA00283BD16846007A0A994706B5
:1013A0007F0E7F1CC9190D91089A641C914201D9C6
:1013B000052547E000061AD50799A01C8842F7D8F2
:1013C0006846FFF743FA002822D101A8FFF73EFA4A
:1013D00000281DD16946087809790002084339467A
:1013E000A41CFFF737FB00281ED126E036E078006A
:1013F000011907988142DBD800261AE06846FFF7FA
:1014000025FA002804D101A8FFF720FA002801D00E
:10141000022517E069460878097900020843A41CF0
:10142000FFF706FB002803D006250BE01FE020E0B5
:10143000761CBE42E2D3002D04D10D980A90079885
:101440008442A4D30E98002801D0FFF79DFA0C988F
:10145000002801D0FFF798F9002D01D0284681E738
:101460000798844203D108990A98884201D0052040
:1014700078E7002076E70000BA040000B4F022000C
:1014800000000000040000000C0000002400000028
:1014900000000000040000002C000000000000001C
:1014A00000000000040000002C000000000000000C
:1014B000001BB7000000000000000000000000005A
:1014C0000000000010270000000000000080510113
:1014D000F0140000000000203C000000F80C0000A8
:1014E0002C1500003C00002004040000080D000042
:1014F00080F0FA023200000080F0FA02001BB70010
:101500000000000080F0FA02102700000000000038
:1015100000000000000000000080510100000000F9
:0C152000000000000000000000000000BF
:04000005000000D522
:00000001FF
